{
  "contractName": "DogShow",
  "abi": [
    {
      "constant": true,
      "inputs": [],
      "name": "currentDogGroup",
      "outputs": [
        {
          "name": "",
          "type": "uint8"
        }
      ],
      "payable": false,
      "stateMutability": "view",
      "type": "function"
    },
    {
      "constant": true,
      "inputs": [],
      "name": "dogGroup",
      "outputs": [
        {
          "name": "",
          "type": "uint8"
        }
      ],
      "payable": false,
      "stateMutability": "view",
      "type": "function"
    },
    {
      "constant": true,
      "inputs": [],
      "name": "state",
      "outputs": [
        {
          "name": "",
          "type": "uint8"
        }
      ],
      "payable": false,
      "stateMutability": "view",
      "type": "function"
    },
    {
      "constant": true,
      "inputs": [],
      "name": "currentDog",
      "outputs": [
        {
          "name": "",
          "type": "uint8"
        }
      ],
      "payable": false,
      "stateMutability": "view",
      "type": "function"
    },
    {
      "inputs": [
        {
          "name": "numDogs",
          "type": "uint8"
        }
      ],
      "payable": false,
      "stateMutability": "nonpayable",
      "type": "constructor"
    },
    {
      "constant": false,
      "inputs": [
        {
          "name": "x",
          "type": "uint8"
        }
      ],
      "name": "changeState",
      "outputs": [],
      "payable": false,
      "stateMutability": "nonpayable",
      "type": "function"
    },
    {
      "constant": false,
      "inputs": [
        {
          "name": "x",
          "type": "uint8"
        }
      ],
      "name": "changeGroup",
      "outputs": [],
      "payable": false,
      "stateMutability": "nonpayable",
      "type": "function"
    },
    {
      "constant": false,
      "inputs": [
        {
          "name": "dog",
          "type": "uint8"
        }
      ],
      "name": "changeDog",
      "outputs": [],
      "payable": false,
      "stateMutability": "nonpayable",
      "type": "function"
    },
    {
      "constant": false,
      "inputs": [
        {
          "name": "judge",
          "type": "address"
        }
      ],
      "name": "register",
      "outputs": [],
      "payable": false,
      "stateMutability": "nonpayable",
      "type": "function"
    },
    {
      "constant": false,
      "inputs": [
        {
          "name": "scr",
          "type": "uint8"
        }
      ],
      "name": "generalAppearanceScore",
      "outputs": [],
      "payable": false,
      "stateMutability": "nonpayable",
      "type": "function"
    },
    {
      "constant": false,
      "inputs": [
        {
          "name": "scr",
          "type": "uint8"
        }
      ],
      "name": "headScore",
      "outputs": [],
      "payable": false,
      "stateMutability": "nonpayable",
      "type": "function"
    },
    {
      "constant": false,
      "inputs": [
        {
          "name": "scr",
          "type": "uint8"
        }
      ],
      "name": "bodyScore",
      "outputs": [],
      "payable": false,
      "stateMutability": "nonpayable",
      "type": "function"
    },
    {
      "constant": false,
      "inputs": [
        {
          "name": "scr",
          "type": "uint8"
        }
      ],
      "name": "forequarterScore",
      "outputs": [],
      "payable": false,
      "stateMutability": "nonpayable",
      "type": "function"
    },
    {
      "constant": false,
      "inputs": [
        {
          "name": "scr",
          "type": "uint8"
        }
      ],
      "name": "coatScore",
      "outputs": [],
      "payable": false,
      "stateMutability": "nonpayable",
      "type": "function"
    },
    {
      "constant": false,
      "inputs": [
        {
          "name": "scr",
          "type": "uint8"
        }
      ],
      "name": "hindquarterScore",
      "outputs": [],
      "payable": false,
      "stateMutability": "nonpayable",
      "type": "function"
    },
    {
      "constant": true,
      "inputs": [],
      "name": "collectWinner",
      "outputs": [
        {
          "name": "winningDog",
          "type": "uint8"
        }
      ],
      "payable": false,
      "stateMutability": "view",
      "type": "function"
    }
  ],
  "bytecode": "0x608060405260038060026101000a81548160ff021916908360038111156200002357fe5b021790555060006003806101000a81548160ff021916908360068111156200004757fe5b02179055503480156200005957600080fd5b50604051602080620030c1833981018060405260208110156200007b57600080fd5b8101908080519060200190929190505050336000806101000a81548173ffffffffffffffffffffffffffffffffffffffff021916908373ffffffffffffffffffffffffffffffffffffffff1602179055506002600160008060009054906101000a900473ffffffffffffffffffffffffffffffffffffffff1673ffffffffffffffffffffffffffffffffffffffff1673ffffffffffffffffffffffffffffffffffffffff16815260200190815260200160002060000160006101000a81548160ff021916908360ff1602179055508060ff166002816200015c919062000289565b506001600360026101000a81548160ff021916908360038111156200017d57fe5b021790555060006003806101000a81548160ff02191690836006811115620001a157fe5b02179055506000600360006101000a81548160ff021916908360ff1602179055506002600360009054906101000a900460ff1660ff1681548110620001e257fe5b9060005260206000200160000160019054906101000a900460ff16600360016101000a81548160ff021916908360ff16021790555060008090505b6002805490508160ff161015620002815760078160ff16816200023c57fe5b0660028260ff16815481106200024e57fe5b9060005260206000200160000160016101000a81548160ff021916908360ff16021790555080806001019150506200021d565b50506200037a565b815481835581811115620002b357818360005260206000209182019101620002b29190620002b8565b5b505050565b6200037791905b808211156200037357600080820160006101000a81549060ff02191690556000820160016101000a81549060ff02191690556000820160026101000a81549060ff02191690556000820160036101000a81549060ff02191690556000820160046101000a81549060ff02191690556000820160056101000a81549060ff02191690556000820160066101000a81549060ff02191690556000820160076101000a81549060ff021916905550600101620002bf565b5090565b90565b612d37806200038a6000396000f3fe608060405234801561001057600080fd5b50600436106100f55760003560e01c80636774bd2711610097578063cf043ee011610066578063cf043ee014610304578063f20637cd14610335578063f6f6e2a614610366578063fa7e97c014610397576100f5565b80636774bd271461024a5780636aad846c1461027b578063a3e221b4146102ac578063c19d93fb146102d8576100f5565b8063268f1153116100d3578063268f1153146101735780632cea8f34146101a45780634420e486146101d557806351258a2914610219576100f5565b806319c2cab2146100fa5780631bd8d8421461011e57806324e75e671461014f575b600080fd5b6101026103bb565b604051808260ff1660ff16815260200191505060405180910390f35b61014d6004803603602081101561013457600080fd5b81019080803560ff1690602001909291905050506103ce565b005b6101576107c4565b604051808260ff1660ff16815260200191505060405180910390f35b6101a26004803603602081101561018957600080fd5b81019080803560ff169060200190929190505050610a52565b005b6101d3600480360360208110156101ba57600080fd5b81019080803560ff169060200190929190505050610bd4565b005b610217600480360360208110156101eb57600080fd5b81019080803573ffffffffffffffffffffffffffffffffffffffff169060200190929190505050610fca565b005b6102486004803603602081101561022f57600080fd5b81019080803560ff16906020019092919050505061183b565b005b6102796004803603602081101561026057600080fd5b81019080803560ff169060200190929190505050611c31565b005b6102aa6004803603602081101561029157600080fd5b81019080803560ff169060200190929190505050612027565b005b6102b46121c9565b604051808260068111156102c457fe5b60ff16815260200191505060405180910390f35b6102e06121db565b604051808260038111156102f057fe5b60ff16815260200191505060405180910390f35b6103336004803603602081101561031a57600080fd5b81019080803560ff1690602001909291905050506121ee565b005b6103646004803603602081101561034b57600080fd5b81019080803560ff169060200190929190505050612605565b005b6103956004803603602081101561037c57600080fd5b81019080803560ff1690602001909291905050506126ec565b005b61039f612ae2565b604051808260ff1660ff16815260200191505060405180910390f35b600360019054906101000a900460ff1681565b60028060038111156103dc57fe5b600360029054906101000a900460ff1660038111156103f757fe5b1461046a576040517f08c379a00000000000000000000000000000000000000000000000000000000081526004018080602001828103825260168152602001807f4e6f7420696e207468652072696768742070686173650000000000000000000081525060200191505060405180910390fd5b610482600360009054906101000a900460ff16612af5565b80600681111561048e57fe5b6003809054906101000a900460ff1660068111156104a857fe5b1461051b576040517f08c379a00000000000000000000000000000000000000000000000000000000081526004018080602001828103825260108152602001807f4368616e676520646f672067726f75700000000000000000000000000000000081525060200191505060405180910390fd5b610523612cb4565b600160003373ffffffffffffffffffffffffffffffffffffffff1673ffffffffffffffffffffffffffffffffffffffff168152602001908152602001600020604051806101000160405290816000820160009054906101000a900460ff1660ff1660ff1681526020016000820160019054906101000a900460ff1660ff1660ff1681526020016000820160029054906101000a900460ff161515151581526020016000820160039054906101000a900460ff161515151581526020016000820160049054906101000a900460ff161515151581526020016000820160059054906101000a900460ff161515151581526020016000820160069054906101000a900460ff161515151581526020016000820160079054906101000a900460ff16151515158152505090508060a00151156106c4576040517f08c379a00000000000000000000000000000000000000000000000000000000081526004018080602001828103825260198152602001807f43616e6e6f74206861766520616c726561647920766f7465640000000000000081525060200191505060405180910390fd5b600280549050600360009054906101000a900460ff1660ff1610610750576040517f08c379a000000000000000000000000000000000000000000000000000000000815260040180806020018281038252600b8152602001807f496e76616c696420446f6700000000000000000000000000000000000000000081525060200191505060405180910390fd5b806000015184016002600360009054906101000a900460ff1660ff168154811061077657fe5b9060005260206000200160000160058282829054906101000a900460ff160192506101000a81548160ff021916908360ff16021790555060018160a001901515908115158152505050505050565b60008060009054906101000a900473ffffffffffffffffffffffffffffffffffffffff1673ffffffffffffffffffffffffffffffffffffffff163373ffffffffffffffffffffffffffffffffffffffff1614610888576040517f08c379a00000000000000000000000000000000000000000000000000000000081526004018080602001828103825260138152602001807f4e65656420746f2062652063686169726d616e0000000000000000000000000081525060200191505060405180910390fd5b600380600381111561089657fe5b600360029054906101000a900460ff1660038111156108b157fe5b14610924576040517f08c379a00000000000000000000000000000000000000000000000000000000081526004018080602001828103825260168152602001807f4e6f7420696e207468652072696768742070686173650000000000000000000081525060200191505060405180910390fd5b6000809050600080905060008090505b6002805490508160ff161015610a405760028160ff168154811061095457fe5b9060005260206000200160000160079054906101000a900460ff1660028260ff168154811061097f57fe5b9060005260206000200160000160069054906101000a900460ff1660028360ff16815481106109aa57fe5b9060005260206000200160000160059054906101000a900460ff1660028460ff16815481106109d557fe5b9060005260206000200160000160049054906101000a900460ff1660028560ff1681548110610a0057fe5b9060005260206000200160000160039054906101000a900460ff160101010160ff16915082821115610a33578192508094505b8080600101915050610934565b506001821015610a4c57fe5b50505090565b6000809054906101000a900473ffffffffffffffffffffffffffffffffffffffff1673ffffffffffffffffffffffffffffffffffffffff163373ffffffffffffffffffffffffffffffffffffffff1614610b14576040517f08c379a00000000000000000000000000000000000000000000000000000000081526004018080602001828103825260138152602001807f4e65656420746f2062652063686169726d616e0000000000000000000000000081525060200191505060405180910390fd5b600360029054906101000a900460ff166003811115610b2f57fe5b816003811115610b3b57fe5b11610bae576040517f08c379a00000000000000000000000000000000000000000000000000000000081526004018080602001828103825260148152602001807f43616e6e6f74207265766572742073746174657300000000000000000000000081525060200191505060405180910390fd5b80600360026101000a81548160ff02191690836003811115610bcc57fe5b021790555050565b6002806003811115610be257fe5b600360029054906101000a900460ff166003811115610bfd57fe5b14610c70576040517f08c379a00000000000000000000000000000000000000000000000000000000081526004018080602001828103825260168152602001807f4e6f7420696e207468652072696768742070686173650000000000000000000081525060200191505060405180910390fd5b610c88600360009054906101000a900460ff16612af5565b806006811115610c9457fe5b6003809054906101000a900460ff166006811115610cae57fe5b14610d21576040517f08c379a00000000000000000000000000000000000000000000000000000000081526004018080602001828103825260108152602001807f4368616e676520646f672067726f75700000000000000000000000000000000081525060200191505060405180910390fd5b610d29612cb4565b600160003373ffffffffffffffffffffffffffffffffffffffff1673ffffffffffffffffffffffffffffffffffffffff168152602001908152602001600020604051806101000160405290816000820160009054906101000a900460ff1660ff1660ff1681526020016000820160019054906101000a900460ff1660ff1660ff1681526020016000820160029054906101000a900460ff161515151581526020016000820160039054906101000a900460ff161515151581526020016000820160049054906101000a900460ff161515151581526020016000820160059054906101000a900460ff161515151581526020016000820160069054906101000a900460ff161515151581526020016000820160079054906101000a900460ff16151515158152505090508060c0015115610eca576040517f08c379a00000000000000000000000000000000000000000000000000000000081526004018080602001828103825260198152602001807f43616e6e6f74206861766520616c726561647920766f7465640000000000000081525060200191505060405180910390fd5b600280549050600360009054906101000a900460ff1660ff1610610f56576040517f08c379a000000000000000000000000000000000000000000000000000000000815260040180806020018281038252600b8152602001807f496e76616c696420446f6700000000000000000000000000000000000000000081525060200191505060405180910390fd5b806000015184016002600360009054906101000a900460ff1660ff1681548110610f7c57fe5b9060005260206000200160000160068282829054906101000a900460ff160192506101000a81548160ff021916908360ff16021790555060018160c001901515908115158152505050505050565b6001806003811115610fd857fe5b600360029054906101000a900460ff166003811115610ff357fe5b14611066576040517f08c379a00000000000000000000000000000000000000000000000000000000081526004018080602001828103825260168152602001807f4e6f7420696e207468652072696768742070686173650000000000000000000081525060200191505060405180910390fd5b6000809054906101000a900473ffffffffffffffffffffffffffffffffffffffff1673ffffffffffffffffffffffffffffffffffffffff163373ffffffffffffffffffffffffffffffffffffffff1614611128576040517f08c379a00000000000000000000000000000000000000000000000000000000081526004018080602001828103825260138152602001807f4e65656420746f2062652063686169726d616e0000000000000000000000000081525060200191505060405180910390fd5b600160008373ffffffffffffffffffffffffffffffffffffffff1673ffffffffffffffffffffffffffffffffffffffff16815260200190815260200160002060000160029054906101000a900460ff16156111eb576040517f08c379a00000000000000000000000000000000000000000000000000000000081526004018080602001828103825260198152602001807f43616e6e6f74206861766520616c726561647920766f7465640000000000000081525060200191505060405180910390fd5b600160008373ffffffffffffffffffffffffffffffffffffffff1673ffffffffffffffffffffffffffffffffffffffff16815260200190815260200160002060000160039054906101000a900460ff16156112ae576040517f08c379a00000000000000000000000000000000000000000000000000000000081526004018080602001828103825260198152602001807f43616e6e6f74206861766520616c726561647920766f7465640000000000000081525060200191505060405180910390fd5b600160008373ffffffffffffffffffffffffffffffffffffffff1673ffffffffffffffffffffffffffffffffffffffff16815260200190815260200160002060000160049054906101000a900460ff1615611371576040517f08c379a00000000000000000000000000000000000000000000000000000000081526004018080602001828103825260198152602001807f43616e6e6f74206861766520616c726561647920766f7465640000000000000081525060200191505060405180910390fd5b600160008373ffffffffffffffffffffffffffffffffffffffff1673ffffffffffffffffffffffffffffffffffffffff16815260200190815260200160002060000160059054906101000a900460ff1615611434576040517f08c379a00000000000000000000000000000000000000000000000000000000081526004018080602001828103825260198152602001807f43616e6e6f74206861766520616c726561647920766f7465640000000000000081525060200191505060405180910390fd5b600160008373ffffffffffffffffffffffffffffffffffffffff1673ffffffffffffffffffffffffffffffffffffffff16815260200190815260200160002060000160069054906101000a900460ff16156114f7576040517f08c379a00000000000000000000000000000000000000000000000000000000081526004018080602001828103825260198152602001807f43616e6e6f74206861766520616c726561647920766f7465640000000000000081525060200191505060405180910390fd5b600160008373ffffffffffffffffffffffffffffffffffffffff1673ffffffffffffffffffffffffffffffffffffffff16815260200190815260200160002060000160079054906101000a900460ff16156115ba576040517f08c379a00000000000000000000000000000000000000000000000000000000081526004018080602001828103825260198152602001807f43616e6e6f74206861766520616c726561647920766f7465640000000000000081525060200191505060405180910390fd5b60018060008473ffffffffffffffffffffffffffffffffffffffff1673ffffffffffffffffffffffffffffffffffffffff16815260200190815260200160002060000160006101000a81548160ff021916908360ff1602179055506000600160008473ffffffffffffffffffffffffffffffffffffffff1673ffffffffffffffffffffffffffffffffffffffff16815260200190815260200160002060000160026101000a81548160ff0219169083151502179055506000600160008473ffffffffffffffffffffffffffffffffffffffff1673ffffffffffffffffffffffffffffffffffffffff16815260200190815260200160002060000160036101000a81548160ff0219169083151502179055506000600160008473ffffffffffffffffffffffffffffffffffffffff1673ffffffffffffffffffffffffffffffffffffffff16815260200190815260200160002060000160046101000a81548160ff0219169083151502179055506000600160008473ffffffffffffffffffffffffffffffffffffffff1673ffffffffffffffffffffffffffffffffffffffff16815260200190815260200160002060000160056101000a81548160ff0219169083151502179055506000600160008473ffffffffffffffffffffffffffffffffffffffff1673ffffffffffffffffffffffffffffffffffffffff16815260200190815260200160002060000160066101000a81548160ff0219169083151502179055506000600160008473ffffffffffffffffffffffffffffffffffffffff1673ffffffffffffffffffffffffffffffffffffffff16815260200190815260200160002060000160076101000a81548160ff0219169083151502179055505050565b600280600381111561184957fe5b600360029054906101000a900460ff16600381111561186457fe5b146118d7576040517f08c379a00000000000000000000000000000000000000000000000000000000081526004018080602001828103825260168152602001807f4e6f7420696e207468652072696768742070686173650000000000000000000081525060200191505060405180910390fd5b6118ef600360009054906101000a900460ff16612af5565b8060068111156118fb57fe5b6003809054906101000a900460ff16600681111561191557fe5b14611988576040517f08c379a00000000000000000000000000000000000000000000000000000000081526004018080602001828103825260108152602001807f4368616e676520646f672067726f75700000000000000000000000000000000081525060200191505060405180910390fd5b611990612cb4565b600160003373ffffffffffffffffffffffffffffffffffffffff1673ffffffffffffffffffffffffffffffffffffffff168152602001908152602001600020604051806101000160405290816000820160009054906101000a900460ff1660ff1660ff1681526020016000820160019054906101000a900460ff1660ff1660ff1681526020016000820160029054906101000a900460ff161515151581526020016000820160039054906101000a900460ff161515151581526020016000820160049054906101000a900460ff161515151581526020016000820160059054906101000a900460ff161515151581526020016000820160069054906101000a900460ff161515151581526020016000820160079054906101000a900460ff1615151515815250509050806060015115611b31576040517f08c379a00000000000000000000000000000000000000000000000000000000081526004018080602001828103825260198152602001807f43616e6e6f74206861766520616c726561647920766f7465640000000000000081525060200191505060405180910390fd5b600280549050600360009054906101000a900460ff1660ff1610611bbd576040517f08c379a000000000000000000000000000000000000000000000000000000000815260040180806020018281038252600b8152602001807f496e76616c696420446f6700000000000000000000000000000000000000000081525060200191505060405180910390fd5b806000015184016002600360009054906101000a900460ff1660ff1681548110611be357fe5b9060005260206000200160000160038282829054906101000a900460ff160192506101000a81548160ff021916908360ff160217905550600181606001901515908115158152505050505050565b6002806003811115611c3f57fe5b600360029054906101000a900460ff166003811115611c5a57fe5b14611ccd576040517f08c379a00000000000000000000000000000000000000000000000000000000081526004018080602001828103825260168152602001807f4e6f7420696e207468652072696768742070686173650000000000000000000081525060200191505060405180910390fd5b611ce5600360009054906101000a900460ff16612af5565b806006811115611cf157fe5b6003809054906101000a900460ff166006811115611d0b57fe5b14611d7e576040517f08c379a00000000000000000000000000000000000000000000000000000000081526004018080602001828103825260108152602001807f4368616e676520646f672067726f75700000000000000000000000000000000081525060200191505060405180910390fd5b611d86612cb4565b600160003373ffffffffffffffffffffffffffffffffffffffff1673ffffffffffffffffffffffffffffffffffffffff168152602001908152602001600020604051806101000160405290816000820160009054906101000a900460ff1660ff1660ff1681526020016000820160019054906101000a900460ff1660ff1660ff1681526020016000820160029054906101000a900460ff161515151581526020016000820160039054906101000a900460ff161515151581526020016000820160049054906101000a900460ff161515151581526020016000820160059054906101000a900460ff161515151581526020016000820160069054906101000a900460ff161515151581526020016000820160079054906101000a900460ff1615151515815250509050806080015115611f27576040517f08c379a00000000000000000000000000000000000000000000000000000000081526004018080602001828103825260198152602001807f43616e6e6f74206861766520616c726561647920766f7465640000000000000081525060200191505060405180910390fd5b600280549050600360009054906101000a900460ff1660ff1610611fb3576040517f08c379a000000000000000000000000000000000000000000000000000000000815260040180806020018281038252600b8152602001807f496e76616c696420446f6700000000000000000000000000000000000000000081525060200191505060405180910390fd5b806000015184016002600360009054906101000a900460ff1660ff1681548110611fd957fe5b9060005260206000200160000160048282829054906101000a900460ff160192506101000a81548160ff021916908360ff160217905550600181608001901515908115158152505050505050565b6000809054906101000a900473ffffffffffffffffffffffffffffffffffffffff1673ffffffffffffffffffffffffffffffffffffffff163373ffffffffffffffffffffffffffffffffffffffff16146120e9576040517f08c379a00000000000000000000000000000000000000000000000000000000081526004018080602001828103825260138152602001807f4e65656420746f2062652063686169726d616e0000000000000000000000000081525060200191505060405180910390fd5b6002805490508160ff1610612166576040517f08c379a00000000000000000000000000000000000000000000000000000000081526004018080602001828103825260208152602001807f646f672073656c6563746564206d75737420626520696e20746865206c69737481525060200191505060405180910390fd5b80600360006101000a81548160ff021916908360ff16021790555060028160ff168154811061219157fe5b9060005260206000200160000160019054906101000a900460ff16600360016101000a81548160ff021916908360ff16021790555050565b6003809054906101000a900460ff1681565b600360029054906101000a900460ff1681565b60028060038111156121fc57fe5b600360029054906101000a900460ff16600381111561221757fe5b1461228a576040517f08c379a00000000000000000000000000000000000000000000000000000000081526004018080602001828103825260168152602001807f4e6f7420696e207468652072696768742070686173650000000000000000000081525060200191505060405180910390fd5b6122a2600360009054906101000a900460ff16612af5565b8060068111156122ae57fe5b6003809054906101000a900460ff1660068111156122c857fe5b1461233b576040517f08c379a00000000000000000000000000000000000000000000000000000000081526004018080602001828103825260108152602001807f4368616e676520646f672067726f75700000000000000000000000000000000081525060200191505060405180910390fd5b612343612cb4565b600160003373ffffffffffffffffffffffffffffffffffffffff1673ffffffffffffffffffffffffffffffffffffffff168152602001908152602001600020604051806101000160405290816000820160009054906101000a900460ff1660ff1660ff1681526020016000820160019054906101000a900460ff1660ff1660ff1681526020016000820160029054906101000a900460ff161515151581526020016000820160039054906101000a900460ff161515151581526020016000820160049054906101000a900460ff161515151581526020016000820160059054906101000a900460ff161515151581526020016000820160069054906101000a900460ff161515151581526020016000820160079054906101000a900460ff16151515158152505090508060400151156124e4576040517f08c379a00000000000000000000000000000000000000000000000000000000081526004018080602001828103825260198152602001807f43616e6e6f74206861766520616c726561647920766f7465640000000000000081525060200191505060405180910390fd5b600280549050600360009054906101000a900460ff1660ff1610612570576040517f08c379a000000000000000000000000000000000000000000000000000000000815260040180806020018281038252600b8152602001807f496e76616c696420446f6700000000000000000000000000000000000000000081525060200191505060405180910390fd5b806000015184016002600360009054906101000a900460ff1660ff168154811061259657fe5b9060005260206000200160000160028282829054906101000a900460ff160192506101000a81548160ff021916908360ff1602179055506001816040019015159081151581525050600360009054906101000a900460ff16816020019060ff16908160ff168152505050505050565b6000809054906101000a900473ffffffffffffffffffffffffffffffffffffffff1673ffffffffffffffffffffffffffffffffffffffff163373ffffffffffffffffffffffffffffffffffffffff16146126c7576040517f08c379a00000000000000000000000000000000000000000000000000000000081526004018080602001828103825260138152602001807f4e65656420746f2062652063686169726d616e0000000000000000000000000081525060200191505060405180910390fd5b806003806101000a81548160ff021916908360068111156126e457fe5b021790555050565b60028060038111156126fa57fe5b600360029054906101000a900460ff16600381111561271557fe5b14612788576040517f08c379a00000000000000000000000000000000000000000000000000000000081526004018080602001828103825260168152602001807f4e6f7420696e207468652072696768742070686173650000000000000000000081525060200191505060405180910390fd5b6127a0600360009054906101000a900460ff16612af5565b8060068111156127ac57fe5b6003809054906101000a900460ff1660068111156127c657fe5b14612839576040517f08c379a00000000000000000000000000000000000000000000000000000000081526004018080602001828103825260108152602001807f4368616e676520646f672067726f75700000000000000000000000000000000081525060200191505060405180910390fd5b612841612cb4565b600160003373ffffffffffffffffffffffffffffffffffffffff1673ffffffffffffffffffffffffffffffffffffffff168152602001908152602001600020604051806101000160405290816000820160009054906101000a900460ff1660ff1660ff1681526020016000820160019054906101000a900460ff1660ff1660ff1681526020016000820160029054906101000a900460ff161515151581526020016000820160039054906101000a900460ff161515151581526020016000820160049054906101000a900460ff161515151581526020016000820160059054906101000a900460ff161515151581526020016000820160069054906101000a900460ff161515151581526020016000820160079054906101000a900460ff16151515158152505090508060e00151156129e2576040517f08c379a00000000000000000000000000000000000000000000000000000000081526004018080602001828103825260198152602001807f43616e6e6f74206861766520616c726561647920766f7465640000000000000081525060200191505060405180910390fd5b600280549050600360009054906101000a900460ff1660ff1610612a6e576040517f08c379a000000000000000000000000000000000000000000000000000000000815260040180806020018281038252600b8152602001807f496e76616c696420446f6700000000000000000000000000000000000000000081525060200191505060405180910390fd5b806000015184016002600360009054906101000a900460ff1660ff1681548110612a9457fe5b9060005260206000200160000160078282829054906101000a900460ff160192506101000a81548160ff021916908360ff16021790555060018160e001901515908115158152505050505050565b600360009054906101000a900460ff1681565b60008060028360ff1681548110612b0857fe5b9060005260206000200160000160019054906101000a900460ff1660ff161415612b355760009050612caf565b600160028360ff1681548110612b4757fe5b9060005260206000200160000160019054906101000a900460ff1660ff161415612b745760019050612caf565b6002808360ff1681548110612b8557fe5b9060005260206000200160000160019054906101000a900460ff1660ff161415612bb25760029050612caf565b600360028360ff1681548110612bc457fe5b9060005260206000200160000160019054906101000a900460ff1660ff161415612bf15760039050612caf565b600460028360ff1681548110612c0357fe5b9060005260206000200160000160019054906101000a900460ff1660ff161415612c305760049050612caf565b600560028360ff1681548110612c4257fe5b9060005260206000200160000160019054906101000a900460ff1660ff161415612c6f5760059050612caf565b600660028360ff1681548110612c8157fe5b9060005260206000200160000160019054906101000a900460ff1660ff161415612cae5760069050612caf565b5b919050565b604051806101000160405280600060ff168152602001600060ff168152602001600015158152602001600015158152602001600015158152602001600015158152602001600015158152602001600015158152509056fea165627a7a723058208a7efcfceb47b62d7644017b7b6efda8b9f60ea4292291c382a156ca52f967870029",
  "source": "pragma solidity ^0.5.2;\n\ncontract DogShow {\n\n    struct Dog {\n        uint8 dogName;\n        uint8 dogType;\n        uint8 genApScr;\n        uint8 hScr;\n        uint8 bScr;\n        uint8 fScr;\n        uint8 cScr;\n        uint8 hqScr;\n    }\n\n    struct Judge {\n        uint8 weight;\n        uint8 dogVotedFor;\n        bool voted_genApScr;\n        bool voted_hScr;\n        bool voted_bScr;\n        bool voted_fScr;\n        bool voted_cScr;\n        bool voted_hqScr;\n    }\n\n    address chairperson;\n    mapping(address => Judge) judges;\n    Dog[] dogs;\n    uint8 public currentDog;\n    uint8 public currentDogGroup;\n\n    //Judging Phases\n    enum Phase {Init, Regs, Vote, Done}\n    Phase public state = Phase.Done;\n\n    //Dog Groups\n    enum Group {Sporting, Hound, Working, Terrier, Toy, NonSporting, Herding}\n    Group public dogGroup = Group.Sporting;\n\n    //Modifiers\n    modifier validPhase(Phase neededPhase) {\n        require(state == neededPhase, \"Not in the right phase\");\n       _;\n    }\n\n    modifier onlyChair() {\n         require(msg.sender == chairperson, \"Need to be chairman\");\n         _;\n     }\n\n    modifier validGroup(Group neededGroup) {\n        require(dogGroup == neededGroup, \"Change dog group\");\n        _;\n    }\n\n    // modifier checkPointVal(uint val) {\n    //     require(val <= 10, \"Cannot award more than 10 points\");\n    //     _;\n    // }\n\n    constructor (uint8 numDogs) public  {\n        chairperson = msg.sender;\n        judges[chairperson].weight = 2;\n        dogs.length = numDogs;\n        state = Phase.Regs;\n        dogGroup = Group.Sporting;\n        currentDog = 0;\n        currentDogGroup = dogs[currentDog].dogType;\n\n        //set dog types\n        for (uint8 dog = 0; dog < dogs.length; dog++){\n            dogs[dog].dogType = dog%7;\n        }\n    }\n\n    //Change Judging State\n     function changeState(Phase x) public onlyChair{\n        require (x > state, \"Cannot revert states\");\n        state = x;\n     }\n\n     //Change Group\n     function changeGroup(Group x) public onlyChair{\n         dogGroup = x;\n     }\n\n     //Change Current Dog Being Judged\n     function changeDog(uint8 dog) public onlyChair{\n         require (dog < dogs.length, \"dog selected must be in the list\");\n         currentDog = dog;\n         currentDogGroup = dogs[dog].dogType;\n     }\n\n    function register(address judge) public validPhase(Phase.Regs) onlyChair {\n        require (!judges[judge].voted_genApScr, \"Cannot have already voted\");\n        require (!judges[judge].voted_hScr, \"Cannot have already voted\");\n        require (!judges[judge].voted_bScr, \"Cannot have already voted\");\n        require (!judges[judge].voted_fScr, \"Cannot have already voted\");\n        require (!judges[judge].voted_cScr, \"Cannot have already voted\");\n        require (!judges[judge].voted_hqScr, \"Cannot have already voted\");\n\n        judges[judge].weight = 1;\n        judges[judge].voted_genApScr = false;\n        judges[judge].voted_hScr = false;\n        judges[judge].voted_bScr = false;\n        judges[judge].voted_fScr = false;\n        judges[judge].voted_cScr = false;\n        judges[judge].voted_hqScr = false;\n    }\n\n    // Select the dog that is being scored\n    function getDogType(uint8 dog) private returns (Group){\n        if(dogs[dog].dogType == 0){\n            return Group.Sporting;\n        }\n        if(dogs[dog].dogType == 1){\n            return Group.Hound;\n        }\n        if(dogs[dog].dogType == 2){\n            return Group.Working;\n        }\n        if(dogs[dog].dogType == 3){\n            return Group.Terrier;\n        }\n        if(dogs[dog].dogType == 4){\n            return Group.Toy;\n        }\n        if(dogs[dog].dogType == 5){\n            return Group.NonSporting;\n        }\n        if(dogs[dog].dogType == 6){\n            return Group.Herding;\n        }\n    }\n\n    function generalAppearanceScore(uint8 scr) public validPhase(Phase.Vote) validGroup(getDogType(currentDog)) {\n        Judge memory sender = judges[msg.sender];\n        require (!sender.voted_genApScr, \"Cannot have already voted\");\n        require (currentDog < dogs.length, \"Invalid Dog\");\n\n        dogs[currentDog].genApScr += (scr + sender.weight);\n        sender.voted_genApScr = true;\n        sender.dogVotedFor = currentDog;\n    }\n\n    function headScore(uint8 scr) public validPhase(Phase.Vote) validGroup(getDogType(currentDog)){\n        Judge memory sender = judges[msg.sender];\n        require (!sender.voted_hScr, \"Cannot have already voted\");\n        require (currentDog < dogs.length, \"Invalid Dog\");\n\n        dogs[currentDog].hScr += (scr + sender.weight);\n        sender.voted_hScr = true;\n    }\n\n    function bodyScore(uint8 scr) public validPhase(Phase.Vote) validGroup(getDogType(currentDog)){\n        Judge memory sender = judges[msg.sender];\n        require (!sender.voted_bScr, \"Cannot have already voted\");\n        require (currentDog < dogs.length, \"Invalid Dog\");\n\n        dogs[currentDog].bScr += (scr + sender.weight);\n        sender.voted_bScr = true;\n    }\n\n    function forequarterScore(uint8 scr) public validPhase(Phase.Vote) validGroup(getDogType(currentDog)){\n        Judge memory sender = judges[msg.sender];\n        require (!sender.voted_fScr, \"Cannot have already voted\");\n        require (currentDog < dogs.length, \"Invalid Dog\");\n\n        dogs[currentDog].fScr += (scr + sender.weight);\n        sender.voted_fScr = true;\n    }\n\n    function coatScore(uint8 scr) public validPhase(Phase.Vote) validGroup(getDogType(currentDog)) {\n        Judge memory sender = judges[msg.sender];\n        require (!sender.voted_cScr, \"Cannot have already voted\");\n        require (currentDog < dogs.length, \"Invalid Dog\");\n\n        dogs[currentDog].cScr += (scr + sender.weight);\n        sender.voted_cScr = true;\n    }\n\n    function hindquarterScore(uint8 scr) public validPhase(Phase.Vote) validGroup(getDogType(currentDog)) {\n        Judge memory sender = judges[msg.sender];\n        require (!sender.voted_hqScr, \"Cannot have already voted\");\n        require (currentDog < dogs.length, \"Invalid Dog\");\n        dogs[currentDog].hqScr += (scr + sender.weight);\n        sender.voted_hqScr = true;\n    }\n\n    function collectWinner() public onlyChair validPhase(Phase.Done) view returns (uint8 winningDog) {\n        uint256 winningVoteCount = 0;\n        uint256 totScr = 0;\n        for (uint8 dog = 0; dog < dogs.length; dog++) {\n            totScr = dogs[dog].hScr + dogs[dog].bScr + dogs[dog].fScr + dogs[dog].cScr + dogs[dog].hqScr;\n            if (totScr > winningVoteCount) {\n                winningVoteCount = totScr;\n                winningDog = dog;\n            }\n        }\n      assert(winningVoteCount>=1);\n    }\n}",
  "sourcePath": "/Users/manmeetsingh/Desktop/AKC-Dog-Show-Judging/judging-contract/contracts/DogShow.sol",
  "compiler": {
    "name": "solc",
    "version": "0.5.8+commit.23d335f2.Emscripten.clang"
  },
  "schemaVersion": "3.0.16",
  "updatedAt": "2019-10-28T19:36:19.686Z",
  "devdoc": {
    "methods": {}
  },
  "userdoc": {
    "methods": {}
  }
}