{
  "contractName": "DogShow",
  "abi": [
    {
      "inputs": [
        {
          "name": "numDogs",
          "type": "uint256"
        }
      ],
      "payable": false,
      "stateMutability": "nonpayable",
      "type": "constructor"
    },
    {
      "constant": false,
      "inputs": [
        {
          "name": "judge",
          "type": "address"
        }
      ],
      "name": "register",
      "outputs": [],
      "payable": false,
      "stateMutability": "nonpayable",
      "type": "function"
    },
    {
      "constant": false,
      "inputs": [
        {
          "name": "scr",
          "type": "uint256"
        },
        {
          "name": "toDog",
          "type": "uint256"
        }
      ],
      "name": "generalAppearanceScore",
      "outputs": [],
      "payable": false,
      "stateMutability": "nonpayable",
      "type": "function"
    },
    {
      "constant": false,
      "inputs": [
        {
          "name": "scr",
          "type": "uint256"
        },
        {
          "name": "toDog",
          "type": "uint256"
        }
      ],
      "name": "headScore",
      "outputs": [],
      "payable": false,
      "stateMutability": "nonpayable",
      "type": "function"
    },
    {
      "constant": false,
      "inputs": [
        {
          "name": "scr",
          "type": "uint256"
        },
        {
          "name": "toDog",
          "type": "uint256"
        }
      ],
      "name": "bodyScire",
      "outputs": [],
      "payable": false,
      "stateMutability": "nonpayable",
      "type": "function"
    },
    {
      "constant": false,
      "inputs": [
        {
          "name": "scr",
          "type": "uint256"
        },
        {
          "name": "toDog",
          "type": "uint256"
        }
      ],
      "name": "forequarterScore",
      "outputs": [],
      "payable": false,
      "stateMutability": "nonpayable",
      "type": "function"
    },
    {
      "constant": false,
      "inputs": [
        {
          "name": "scr",
          "type": "uint256"
        },
        {
          "name": "toDog",
          "type": "uint256"
        }
      ],
      "name": "coatScore",
      "outputs": [],
      "payable": false,
      "stateMutability": "nonpayable",
      "type": "function"
    },
    {
      "constant": false,
      "inputs": [
        {
          "name": "scr",
          "type": "uint256"
        },
        {
          "name": "toDog",
          "type": "uint256"
        }
      ],
      "name": "hindquarterScore",
      "outputs": [],
      "payable": false,
      "stateMutability": "nonpayable",
      "type": "function"
    },
    {
      "constant": true,
      "inputs": [],
      "name": "collectWinner",
      "outputs": [
        {
          "name": "winningDog",
          "type": "uint256"
        }
      ],
      "payable": false,
      "stateMutability": "view",
      "type": "function"
    }
  ],
  "bytecode": "0x608060405234801561001057600080fd5b50604051602080610f548339810180604052602081101561003057600080fd5b8101908080519060200190929190505050336000806101000a81548173ffffffffffffffffffffffffffffffffffffffff021916908373ffffffffffffffffffffffffffffffffffffffff1602179055506002600160008060009054906101000a900473ffffffffffffffffffffffffffffffffffffffff1673ffffffffffffffffffffffffffffffffffffffff1673ffffffffffffffffffffffffffffffffffffffff16815260200190815260200160002060000181905550806002816100f891906100ff565b5050610188565b81548183558181111561012c5760070281600702836000526020600020918201910161012b9190610131565b5b505050565b61018591905b808211156101815760008082016000905560018201600090556002820160009055600382016000905560048201600090556005820160009055600682016000905550600701610137565b5090565b90565b610dbd806101976000396000f3fe608060405234801561001057600080fd5b50600436106100885760003560e01c80636e908cf81161005b5780636e908cf81461015f5780639d82a00014610197578063ab8530f6146101cf578063f07997931461020757610088565b806324e75e671461008d5780634420e486146100ab5780634f321f3d146100ef5780635e6475ae14610127575b600080fd5b61009561023f565b6040518082815260200191505060405180910390f35b6100ed600480360360208110156100c157600080fd5b81019080803573ffffffffffffffffffffffffffffffffffffffff16906020019092919050505061032c565b005b6101256004803603604081101561010557600080fd5b810190808035906020019092919080359060200190929190505050610598565b005b61015d6004803603604081101561013d57600080fd5b8101908080359060200190929190803590602001909291905050506106e0565b005b6101956004803603604081101561017557600080fd5b810190808035906020019092919080359060200190929190505050610828565b005b6101cd600480360360408110156101ad57600080fd5b810190808035906020019092919080359060200190929190505050610970565b005b610205600480360360408110156101e557600080fd5b810190808035906020019092919080359060200190929190505050610ab8565b005b61023d6004803603604081101561021d57600080fd5b810190808035906020019092919080359060200190929190505050610c00565b005b60008060009050600080905060008090505b60028054905081101561031b576002818154811061026b57fe5b9060005260206000209060070201600601546002828154811061028a57fe5b906000526020600020906007020160050154600283815481106102a957fe5b906000526020600020906007020160040154600284815481106102c857fe5b906000526020600020906007020160030154600285815481106102e757fe5b9060005260206000209060070201600201540101010191508282111561030e578192508093505b8080600101915050610251565b50600182101561032757fe5b505090565b60018060008373ffffffffffffffffffffffffffffffffffffffff1673ffffffffffffffffffffffffffffffffffffffff168152602001908152602001600020600001819055506000600160008373ffffffffffffffffffffffffffffffffffffffff1673ffffffffffffffffffffffffffffffffffffffff16815260200190815260200160002060010160006101000a81548160ff0219169083151502179055506000600160008373ffffffffffffffffffffffffffffffffffffffff1673ffffffffffffffffffffffffffffffffffffffff16815260200190815260200160002060010160016101000a81548160ff0219169083151502179055506000600160008373ffffffffffffffffffffffffffffffffffffffff1673ffffffffffffffffffffffffffffffffffffffff16815260200190815260200160002060010160026101000a81548160ff0219169083151502179055506000600160008373ffffffffffffffffffffffffffffffffffffffff1673ffffffffffffffffffffffffffffffffffffffff16815260200190815260200160002060010160036101000a81548160ff0219169083151502179055506000600160008373ffffffffffffffffffffffffffffffffffffffff1673ffffffffffffffffffffffffffffffffffffffff16815260200190815260200160002060010160046101000a81548160ff0219169083151502179055506000600160008373ffffffffffffffffffffffffffffffffffffffff1673ffffffffffffffffffffffffffffffffffffffff16815260200190815260200160002060010160056101000a81548160ff02191690831515021790555050565b6105a0610d48565b600160003373ffffffffffffffffffffffffffffffffffffffff1673ffffffffffffffffffffffffffffffffffffffff1681526020019081526020016000206040518060e0016040529081600082015481526020016001820160009054906101000a900460ff161515151581526020016001820160019054906101000a900460ff161515151581526020016001820160029054906101000a900460ff161515151581526020016001820160039054906101000a900460ff161515151581526020016001820160049054906101000a900460ff161515151581526020016001820160059054906101000a900460ff161515151581525050905080600001518301600283815481106106ac57fe5b9060005260206000209060070201600301600082825401925050819055506001816060019015159081151581525050505050565b6106e8610d48565b600160003373ffffffffffffffffffffffffffffffffffffffff1673ffffffffffffffffffffffffffffffffffffffff1681526020019081526020016000206040518060e0016040529081600082015481526020016001820160009054906101000a900460ff161515151581526020016001820160019054906101000a900460ff161515151581526020016001820160029054906101000a900460ff161515151581526020016001820160039054906101000a900460ff161515151581526020016001820160049054906101000a900460ff161515151581526020016001820160059054906101000a900460ff161515151581525050905080600001518301600283815481106107f457fe5b90600052602060002090600702016006016000828254019250508190555060018160c0019015159081151581525050505050565b610830610d48565b600160003373ffffffffffffffffffffffffffffffffffffffff1673ffffffffffffffffffffffffffffffffffffffff1681526020019081526020016000206040518060e0016040529081600082015481526020016001820160009054906101000a900460ff161515151581526020016001820160019054906101000a900460ff161515151581526020016001820160029054906101000a900460ff161515151581526020016001820160039054906101000a900460ff161515151581526020016001820160049054906101000a900460ff161515151581526020016001820160059054906101000a900460ff1615151515815250509050806000015183016002838154811061093c57fe5b9060005260206000209060070201600401600082825401925050819055506001816080019015159081151581525050505050565b610978610d48565b600160003373ffffffffffffffffffffffffffffffffffffffff1673ffffffffffffffffffffffffffffffffffffffff1681526020019081526020016000206040518060e0016040529081600082015481526020016001820160009054906101000a900460ff161515151581526020016001820160019054906101000a900460ff161515151581526020016001820160029054906101000a900460ff161515151581526020016001820160039054906101000a900460ff161515151581526020016001820160049054906101000a900460ff161515151581526020016001820160059054906101000a900460ff16151515158152505090508060000151830160028381548110610a8457fe5b9060005260206000209060070201600201600082825401925050819055506001816040019015159081151581525050505050565b610ac0610d48565b600160003373ffffffffffffffffffffffffffffffffffffffff1673ffffffffffffffffffffffffffffffffffffffff1681526020019081526020016000206040518060e0016040529081600082015481526020016001820160009054906101000a900460ff161515151581526020016001820160019054906101000a900460ff161515151581526020016001820160029054906101000a900460ff161515151581526020016001820160039054906101000a900460ff161515151581526020016001820160049054906101000a900460ff161515151581526020016001820160059054906101000a900460ff16151515158152505090508060000151830160028381548110610bcc57fe5b90600052602060002090600702016005016000828254019250508190555060018160a0019015159081151581525050505050565b610c08610d48565b600160003373ffffffffffffffffffffffffffffffffffffffff1673ffffffffffffffffffffffffffffffffffffffff1681526020019081526020016000206040518060e0016040529081600082015481526020016001820160009054906101000a900460ff161515151581526020016001820160019054906101000a900460ff161515151581526020016001820160029054906101000a900460ff161515151581526020016001820160039054906101000a900460ff161515151581526020016001820160049054906101000a900460ff161515151581526020016001820160059054906101000a900460ff16151515158152505090508060000151830160028381548110610d1457fe5b9060005260206000209060070201600101600082825401925050819055506001816020019015159081151581525050505050565b6040518060e0016040528060008152602001600015158152602001600015158152602001600015158152602001600015158152602001600015158152602001600015158152509056fea165627a7a7230582037709b967cc7a82f8034c68965abaf117dbdcd805e351053016d63e2015fa15e0029",
  "source": "pragma solidity ^ 0.5 .2;\n\ncontract DogShow {\n\n    struct Dog {\n        uint dogName;\n        // uint dogType;\n        uint genApScr;\n        uint hScr;\n        uint bScr;\n        uint fScr;\n        uint cScr;\n        uint hqScr;\n    }\n\n    struct Judge {\n        uint weight;\n        // uint dogVotedFor;\n        bool voted_genApScr;\n        bool voted_hScr;\n        bool voted_bScr;\n        bool voted_fScr;\n        bool voted_cScr;\n        bool voted_hqScr;\n    }\n\n    address chairperson;\n    mapping(address => Judge) judges;\n    Dog[] dogs;\n\n    // uint public currentDog;\n    // uint public currentDogGroup;\n\n    //Judging Phases\n    // enum Phase {Init, Regs, Vote, Done}\n    // Phase public state = Phase.Done;\n\n    //Dog Groups\n    // enum Group {Sporting, Hound, Working, Terrier, Toy, NonSporting, Herding}\n    // Group public dogGroup = Group.Sporting;\n\n    //Modifiers\n    // modifier validPhase(Phase neededPhase) {\n    // require(state == neededPhase, \"Not in the right phase\");\n    //    _;\n    // }\n\n    // modifier onlyChair() {\n    //  require(msg.sender == chairperson, \"Need to be chairman\");\n    //  _;\n    //  }\n\n    // modifier validGroup(Group neededGroup) {\n    // require(dogGroup == neededGroup, \"Change dog group\");\n    // _;\n    // }\n\n    // modifier checkPointVal(uint val) {\n    //     require(val <= 10, \"Cannot award more than 10 points\");\n    //     _;\n    // }\n\n    constructor(uint numDogs) public {\n        chairperson = msg.sender;\n        judges[chairperson].weight = 2;\n        dogs.length = numDogs;\n        // state = Phase.Regs;\n        // dogGroup = Group.Sporting;\n        // currentDog = 0;\n        // currentDogGroup = dogs[currentDog].dogType;\n\n        //set dog types\n        // for (uint dog = 0; dog < dogs.length; dog++){\n        // dogs[dog].dogType = dog%7;\n        // }\n    }\n\n    //Change Judging State\n    //  function changeState(Phase x) public onlyChair{\n    //     require (x > state, \"Cannot revert states\");\n    //     state = x;\n    //  }\n\n    //Change Group\n    //  function changeGroup(Group x) public onlyChair{\n    //      dogGroup = x;\n    //  }\n\n    //Change Current Dog Being Judged\n    //  function changeDog(uint dog) public onlyChair{\n    //      require (dog < dogs.length, \"dog selected must be in the list\");\n    //      currentDog = dog;\n    //      currentDogGroup = dogs[dog].dogType;\n    //  }\n\n    // function register(address judge) public validPhase(Phase.Regs) onlyChair {\n    function register(address judge) public {\n        // require (!judges[judge].voted_genApScr, \"Cannot have already voted\");\n        // require (!judges[judge].voted_hScr, \"Cannot have already voted\");\n        // require (!judges[judge].voted_bScr, \"Cannot have already voted\");\n        // require (!judges[judge].voted_fScr, \"Cannot have already voted\");\n        // require (!judges[judge].voted_cScr, \"Cannot have already voted\");\n        // require (!judges[judge].voted_hqScr, \"Cannot have already voted\");\n\n        judges[judge].weight = 1;\n        judges[judge].voted_genApScr = false;\n        judges[judge].voted_hScr = false;\n        judges[judge].voted_bScr = false;\n        judges[judge].voted_fScr = false;\n        judges[judge].voted_cScr = false;\n        judges[judge].voted_hqScr = false;\n    }\n\n    // Select the dog that is being scored\n    // function getDogType(uint dog) private returns (Group){\n    //     if(dogs[dog].dogType == 0){\n    //         return Group.Sporting;\n    //     }\n    //     if(dogs[dog].dogType == 1){\n    //         return Group.Hound;\n    //     }\n    //     if(dogs[dog].dogType == 2){\n    //         return Group.Working;\n    //     }\n    //     if(dogs[dog].dogType == 3){\n    //         return Group.Terrier;\n    //     }\n    //     if(dogs[dog].dogType == 4){\n    //         return Group.Toy;\n    //     }\n    //     if(dogs[dog].dogType == 5){\n    //         return Group.NonSporting;\n    //     }\n    //     if(dogs[dog].dogType == 6){\n    //         return Group.Herding;\n    //     }\n    // }\n\n    // function generalAppearanceScore(uint scr) public validPhase(Phase.Vote) validGroup(getDogType(currentDog)) {\n    function generalAppearanceScore(uint scr, uint toDog) public {\n        Judge memory sender = judges[msg.sender];\n        // require (!sender.voted_genApScr, \"Cannot have already voted\");\n        // require (currentDog < dogs.length, \"Invalid Dog\");\n\n        dogs[toDog].genApScr += (scr + sender.weight);\n        sender.voted_genApScr = true;\n    }\n\n    // function headScore(uint scr) public validPhase(Phase.Vote) validGroup(getDogType(currentDog)){\n    function headScore(uint scr, uint toDog) public {\n        Judge memory sender = judges[msg.sender];\n        // require (!sender.voted_hScr, \"Cannot have already voted\");\n        // require (currentDog < dogs.length, \"Invalid Dog\");\n\n        dogs[toDog].hScr += (scr + sender.weight);\n        sender.voted_hScr = true;\n    }\n\n    // function bodyScore(uint scr) public validPhase(Phase.Vote) validGroup(getDogType(currentDog)) {\n    function bodyScire(uint scr, uint toDog) public {\n        Judge memory sender = judges[msg.sender];\n        // require(!sender.voted_bScr, \"Cannot have already voted\");\n        // require(currentDog < dogs.length, \"Invalid Dog\");\n\n        dogs[toDog].bScr += (scr + sender.weight);\n        sender.voted_bScr = true;\n    }\n\n    // function forequarterScore(uint scr) public validPhase(Phase.Vote) validGroup(getDogType(currentDog)) {\n    function forequarterScore(uint scr, uint toDog) public {\n        Judge memory sender = judges[msg.sender];\n        // require(!sender.voted_fScr, \"Cannot have already voted\");\n        // require(currentDog < dogs.length, \"Invalid Dog\");\n\n        dogs[toDog].fScr += (scr + sender.weight);\n        sender.voted_fScr = true;\n    }\n\n    // function coatScore(uint scr) public validPhase(Phase.Vote) validGroup(getDogType(currentDog)) {\n    function coatScore(uint scr, uint toDog) public {\n        Judge memory sender = judges[msg.sender];\n        // require(!sender.voted_cScr, \"Cannot have already voted\");\n        // require(currentDog < dogs.length, \"Invalid Dog\");\n\n        dogs[toDog].cScr += (scr + sender.weight);\n        sender.voted_cScr = true;\n    }\n\n    // function hindquarterScore(uint scr) public validPhase(Phase.Vote) validGroup(getDogType(currentDog)) {\n    function hindquarterScore(uint scr, uint toDog) public {\n        Judge memory sender = judges[msg.sender];\n        // require(!sender.voted_hqScr, \"Cannot have already voted\");\n        // require(currentDog < dogs.length, \"Invalid Dog\");\n        dogs[toDog].hqScr += (scr + sender.weight);\n        sender.voted_hqScr = true;\n    }\n\n    // function collectWinner() public onlyChair validPhase(Phase.Done) view returns(uint winningDog) {\n    function collectWinner() public view returns(uint winningDog) {\n        uint256 winningVoteCount = 0;\n        uint256 totScr = 0;\n        for (uint dog = 0; dog < dogs.length; dog++) {\n            totScr = dogs[dog].hScr + dogs[dog].bScr + dogs[dog].fScr + dogs[dog].cScr + dogs[dog].hqScr;\n            if (totScr > winningVoteCount) {\n                winningVoteCount = totScr;\n                winningDog = dog;\n            }\n        }\n        assert(winningVoteCount >= 1);\n    }\n}",
  "sourcePath": "/Users/manmeetsingh/Desktop/AKC-Dog-Show-Judging/judging-contract/contracts/DogShow.sol",
  "compiler": {
    "name": "solc",
    "version": "0.5.8+commit.23d335f2.Emscripten.clang"
  },
  "schemaVersion": "3.0.16",
  "updatedAt": "2019-11-13T17:55:06.323Z",
  "devdoc": {
    "methods": {}
  },
  "userdoc": {
    "methods": {}
  }
}